:020000040000FA
:10800000A09300001D82000025820000278200004E
:10801000298200002B8200002D8200000000000059
:108020000000000000000000000000002F8200009F
:10803000318200000000000033820000C58900008A
:10804000378200003782000037820000378200004C
:10805000378200003782000037820000378200003C
:10806000378200003782000037820000378200002C
:10807000378200003782000037820000378200001C
:1080800037820000378200003782000000000000C5
:108090000000000000000000000000003782000027
:1080A00037820000378200003782000037820000EC
:1080B00037820000378200003782000037820000DC
:1080C00037820000378200003782000037820000CC
:1080D0003782000037820000378200000000000075
:1080E0003782000037820000378200000000000065
:1080F00000000000000000000000000037820000C7
:108100000000000037820000378200003782000044
:10811000000000000000000000000000000000005F
:10812000378200003782000037820000378200006B
:108130003782000000000000000000000000000086
:108140000000000000000000000000003782000076
:10815000378200003782000037820000378200003B
:10816000378200003782000000000000000000009D
:1081700000000000000000000000000000000000FF
:108180000000000037820000000000000000000036
:10819000378200003782000000F002F800F02EF86D
:1081A0000AA090E8000C82448344AAF10107DA4552
:1081B00001D100F023F8AFF2090EBAE80F0013F076
:1081C000010F18BFFB1A43F001031847FC0A000017
:1081D0000C0B00000023002400250026103A28BFC5
:1081E00078C1FBD8520728BF30C148BF0B60704729
:1081F0001FB500F05BFD1FBD10B510BD00F042F8CB
:108200001146FFF7F5FF00F0A9FC00F060F803B499
:10821000FFF7F2FF03BC00F02FF800000948804789
:1082200009480047FEE7FEE7FEE7FEE7FEE7FEE758
:10823000FEE7FEE7FEE7FEE704480549054A064B70
:1082400070470000C989000099810000A08D0000DE
:10825000A0930000A08F0000A08F0000704770471F
:10826000704710B5002000F03BF8FFF7C5FFBDE8F0
:1082700010400120AFF3008001491820ABBEFEE79B
:1082800026000200754600F033F8AE460500694648
:10829000534620F00700854618B020B5FFF7CCFF05
:1082A000BDE820404FF000064FF000074FF00008F7
:1082B0004FF0000BAC46ACE8C009ACE8C009ACE834
:1082C000C009ACE8C00921F007018D46704710B520
:1082D0000446AFF300802046BDE81040FFF797BF8B
:1082E00010B500F00FF8BDE8104000F006B800002F
:1082F00000487047E88C00007047002801D0FFF765
:10830000BBBF704710B5002102A000F013F8012098
:1083100010BD0000534947414252543A2041626E19
:108320006F726D616C207465726D696E6174696FD6
:108330006E00000070B505460C460A2000E06D1C7A
:1083400000F011F835B128780028F8D102E0641C5B
:1083500000F009F814B120780028F8D1BDE8704089
:108360000A20AFF3008008B569468DF800000320AD
:10837000ABBE08BDB0B5044600F0E0F8054648F6CF
:10838000DC40C0F200000078611C18BF044400BF4C
:1083900000F0D4F8401BA042FAD3B0BD2DE9F04F55
:1083A00082B000F13E4241F2000502F1FF77C4F2D3
:1083B000020507224FEAB726A84208BF0422042E6E
:1083C00038BF4FEAB7224FF0010A002400274FF0D0
:1083D0000009009209E000BF09F101090237B9F173
:1083E000100F04F1040400F0A6800A680AFA09FCE0
:1083F00012EA0C08F0D0D1F804B00BF0030AAAF18D
:108400000102012A12D882680323CE6803FA07FE0C
:1084100022EA0E02BE40324382604268CBF300166D
:1084200022EA0C0206FA09F632434260BAF1030F5F
:108430001DD0C26803238D6803FA07F6B24305FA1C
:1084400007F63243BAF1020FC26010D16FF0030297
:1084500002EA59020244D2F820C004F01C050F239E
:108460000E69AB402CEA0303AE403343136202684B
:1084700003234E68BB409A4306F00303BB401A43F4
:1084800016F4403F4FF0010A0260A5D0002243F6E7
:1084900044030192C4F202031A6843F6004E42F408
:1084A00080421A601A68C4F2010E02F480420192FE
:1084B000019A29F003024FF6084C7244CFF6FF7C74
:1084C00052F80C3004F00C060F25B540AB43009D6C
:1084D00005FA06F6334342F80C30DEF808204B6804
:1084E00042EA080643F60C4CDD0258BF22EA0806B1
:1084F000CEF80860C4F2010CDCF800209D0242EACC
:10850000080658BF22EA0806CCF80060DEF804200E
:108510009D0342EA080658BF22EA0806CEF8046026
:10852000DEF80020DB0342EA080658BF22EA08060C
:10853000CEF8006050E702B0BDE8F08F48F69850E2
:10854000C0F200000068704748F6DC4048F69851D9
:10855000C0F20000C0F2000100780A681044086010
:108560007047000080B543F60040C4F20200016885
:1085700041F400710160016841F4806101600320F1
:1085800000F05EF80F2000F005F800F02BF8002056
:1085900080BD0000B0B548F6DC42C0F2000248F6EB
:1085A000D8411278C0F200014FF47A730968B3FB26
:1085B000F2F20446B1FBF2F1084600F051F80F2C3C
:1085C0004FF001050CD858B94FF0FF30214600227A
:1085D000002500F009F848F6E040C0F20000046011
:1085E0002846B0BD7047000010B54EF60C5CCEF2C8
:1085F000000CDCF80030C3F3022E8EF00704042CCC
:1086000028BF0424BEF103034FF0FF3E0EFA04F42A
:1086100038BF0023A14399400EFA03F39A43114354
:1086200000F1604200F00F03090102F56442043BCF
:108630006344002848BF03F10C02117010BD000014
:108640004EF60C51CEF200010A684FF6FF031A40B5
:1086500060F30A2242F0806040F0FD7008607047CD
:10866000411E0020B0EB116F1CBF012070474EF27D
:108670001002CEF2000251604EF62351CEF20001FC
:10868000F0230B7007219060116070472DE9F041D5
:1086900090F83C30012B04BF0220BDE8F0814FEA86
:1086A000B2020123032A80F83C3000F2E580DFE8C3
:1086B00002F0023975B0036800271A6AC4F2010794
:1086C00022F001021A621E6A1A465C6852F818CF3C
:1086D0008D6826F00206BB4245EA060E06D1CD683B
:1086E0002EF00C0625F0040545EA060E0E68BB4286
:1086F00005D1D1E9055724F440742C433C432CF0B8
:10870000730737435C609F614F6809695F63C3F813
:1087100020E09F6947F008079F619F6927F00407E1
:108720009F61A5E0036800251A6AC4F2010522F0E2
:1087300010021A621C6A1A46D3F804C052F818EFE5
:108740008E6824F02004AB4244EA061407D1CE68B8
:108750006FF0400724F0C00407EA061634430E68A1
:10876000AB4207D1D1E905872CF4406547EA0807F9
:1087700045EA870C2EF4E64747EA0627C3F804C00B
:108780009F614F6809699F631C629F6947F4006796
:108790009F619F6927F480679F6168E003680025F7
:1087A0001A6AC4F2010522F480721A621C6A1A461F
:1087B000D3F804C052F81CEF8E6824F40074AB4266
:1087C00044EA062407D1CE6840F2FF47360224F47B
:1087D0004064BE4334430E68AB4207D1D1E90587FC
:1087E0002CF4405547EA080745EA071C2EF07307AA
:1087F0003743C3F804C0DF614F680969DF631C6257
:10880000DF6947F00807DF61DF6927F00407DF61F0
:108810002EE0036800271A6AC4F2010722F480528E
:108820001A621A46D3F820C05D6852F81C4FD1F87E
:1088300000E08E68BB4204D14F6925F4804545EACB
:1088400087152CF4005747EA063724F4E64646EA33
:108850000E265D60DE614E6809691E641F62DF6975
:1088600047F40067DF61DF6927F48067DF61090291
:108870001368194300231160002180F83C1018464A
:10888000BDE8F081002804BF0120704710B5044600
:1088900090F83D0028B9002084F83C00204600F004
:1088A0001FF8022084F83D002068211D00F096F892
:1088B000012084F8460084F83E0084F83F0084F8E4
:1088C000400084F8410084F8420084F8430084F8B2
:1088D000440084F8450084F83D00002010BD0000ED
:1088E0007047000041B1082909D0042914BF00F1E4
:1088F000410200F13F0204E000F13E0201E000F11C
:1089000040021278012A1CBF01207047022241B1A7
:10891000082909D0042914BF80F8412080F83F209D
:1089200004E080F83E2001E080F84020006801F07B
:108930001F010122036A8A4023EA02010162036ADD
:108940004421C4F201011A43A1F144039842026296
:1089500003D10A6842F400420A6040F6FF31C4F2D3
:10896000000188420FDCB0F1804F1DD040F2004181
:10897000C4F20001884217D040F60001C4F20001A1
:10898000884211D017E040F60041C4F2000188424D
:108990000AD044F20001C4F20101884204D000214F
:1089A000C4F20101884206D1816801F0070106295D
:1089B00004BF00207047016841F001010160002000
:1089C00070470000FFF7C0BD4EF68850CEF20000A1
:1089D000016841F4700101607047000010B540F279
:1089E000FF7E0368C4F2000E40F2000C7045C4F232
:1089F000010C0ADD40F60002C4F2000290420DD0E4
:108A000060450BD040F6004204E0B0F1804F05D045
:108A100040F20042C4F20002904203D14A6823F0BF
:108A2000700313434FF6FF72C4F20002904209DC58
:108A3000704512DCB0F1804F26D040F20042C4F203
:108A400000021FE044F2FF32C4F2010290420FDC48
:108A5000604519D044F2000212E040F60002C4F270
:108A60000002904210D040F60042C4F2000209E039
:108A700044F60002C4F20102904205D044F20042E2
:108A8000C4F20102904203D1CA6823F44073134335
:108A900023F080024B69D1F800E08C681A436045EE
:108AA0000260C462C0F828E002D10969CCF8301035
:108AB0000121416110BD000090F84820082A08D02B
:108AC000042A0AD00068002A14BF40303430016004
:108AD000704700683C3001607047006838300160C2
:108AE00070470000F0B58DB0129D044680F84850E4
:108AF00088880027089002200B970A970990086839
:108B000008A916460C93FFF749FC0920C4E9006048
:108B1000802047F6FF41A06120460797CDE9057701
:108B2000CDE90377CDE90177C4E902712761FFF749
:108B3000A9FE6020019040F6CA00CDE9020701A914
:108B400020462A460597FFF7A1FD20462946FFF754
:108B5000C9FE20460DB0F0BDFFF783FB84B040F6A0
:108B60000004C4F20004FFF7FDFC002043F63001CE
:108B70000290C4F202010A6842F002020A600A6826
:108B800002F0020202920290086940F004000861BB
:108B9000086900F00400029004F5FE3002904FF4E2
:108BA0008070ADF80C0048F64850C0F20000007824
:108BB000BFF35F8FC00728D048F64C54C0F20004C2
:108BC000204640F6CA01FFF777FF4FF47A70FFF7AF
:108BD000D1FB204640F61651FFF76EFF4FF47A7036
:108BE000FFF7C8FB204640F6CA01FFF765FF4FF4C8
:108BF0007A70FFF7BFFB20464FF49661FFF75CFFEA
:108C00004FF47A70FFF7B6FBDAE748F64850C0F247
:108C1000000000F017F80028CED048F64C504FF076
:108C2000080CC0F2000002A922460223CDF800C0C1
:108C3000FFF758FF48F64850C0F2000000F032F845
:108C4000BAE7000080B5017809B1002080BD417805
:108C5000012903D08A0705D402224270481E18BF9A
:108C6000012080BD01A0FFF777FF00BF5F5F637841
:108C7000615F67756172645F6163717569726520B8
:108C80006465746563746564207265637572736985
:108C9000766520696E697469616C697A6174696F5F
:108CA0006E0000000121017041707047F1EE100A62
:108CB0004FF6FF71C0F2C03120EA010040F0407071
:108CC000E1EE100A70470000E48C0000E88C000020
:108CD000B8060000D48100000024F4000100000068
:048CE0001000000080
:040000050000821D58
:00000001FF
